S01000005A69675F746573742E73726563CB
S11300000C942A000C9447000C9447000C9447006D
S11300100C9447000C9447000C9447000C94470040
S11300200C9447000C9447000C9447000C943F0137
S11300300C9447000C9447000C9447000C94470020
S11300400C9447000C9447000C9447000C94470010
S11300500C94470011241FBECFE5D4E0DEBFCDBF12
S113006011E0A0E6B0E0E0E6FDE002C005900D92EC
S1130070AA31B107D9F711E0AAE1B1E001C01D929C
S1130080A134B107E1F70E947F010C94AE060C94F1
S113009000008EEF88BB85E08A95F1F7000086B3F7
S11300A0807F803E41F0803D41F0803B41F08037CD
S11300B041F08FEF07C081E005C082E003C083E018
S11300C001C08CE09DEF98BB95E09A95F1F7000094
S11300D096B3907F903E39F0903D39F0903B39F0E3
S11300E0903741F406C084E005C085E003C086E093
S11300F001C08DE09BEF98BB95E09A95F1F7000065
S113010096B3907F903E39F0903D39F0903B39F0B2
S1130110903741F406C087E005C088E003C089E059
S113012001C08EE097EF98BB95E09A95F1F7000037
S113013096B3907F903E39F0903D39F0903B39F082
S1130140903741F406C08AE0089580E008958BE07A
S113015008958FE0089510BC83E389B98AB188615A
S11301608AB980B5866880BD08955D9BFECF8CB941
S113017008955F9BFECF8CB10895CF93DF93EC017C
S11301808881882331F021960E94B50089918823C3
S1130190D9F7DF91CF910895EF92FF920F931F93B8
S11301A0CF93DF937C01D62FC0E087010C0F111D84
S11301B00E94B900F80180838D1711F0CF5FF5CF4D
S11301C0F701EC0FF11D10828E2D9F2DDF91CF9141
S11301D01F910F91FF90EF90089590EA95BB8BBB10
S11301E08FEC97E00197F1F700C0000080E285BB37
S11301F08FEC97E00197F1F700C00000089590E8B4
S113020095BB8BBB8FEC97E00197F1F700C0000022
S113021015BA8FEC97E00197F1F700C0000008953C
S113022088E30E94FF0081E00E94FF0086E00E94B4
S1130230FF008EE00E94FF000895CF93DF93EC014E
S11302408881882331F021960E94ED0089918823CA
S1130250D9F7DF91CF910895CF93DF93462FC0E66E
S1130260D0E0BE0150E00E946906219680E30E941E
S1130270ED0089918823D9F7DF91CF9108951F92DA
S11302800F920FB60F9211242F933F934F935F93C6
S11302906F937F938F939F93AF93BF93CF93DF938A
S11302A0EF93FF93C0913F01D0E00E94B9002AE18F
S11302B031E0C20FD31F888380913F01280F311D85
S11302C0F90180818E3719F481E080934001809197
S11302D03F018F5F80933F01FF91EF91DF91CF91B9
S11302E0BF91AF919F918F917F916F915F914F914A
S11302F03F912F910F900FBE0F901F901895CF93A1
S1130300DF93CDB7DEB7C759D0400FB6F894DEBF40
S11303100FBECDBF8FEF8ABB84BB90EF91BB9FE034
S113032097BB88BB10923F01DE011196EDEDF0E022
S113033085E001900D928150E1F71B861C861D8695
S11303401E86FE013F968EE1DF011D928A95E9F734
S11303501DA61EA61FA618AA19AADE01D296E2EEB1
S1130360F0E085E001900D928150E1F78CE290E09D
S113037098AF8FABDE01D996E7EEF0E085E001900F
S11303800D928150E1F7DE01DE96ECEEF0E085E0BF
S113039001900D928150E1F7DE01AD5BBF4FE1EFBB
S11303A0F0E085E001900D928150E1F7DE01A85B59
S11303B0BF4FE6EFF0E085E001900D928150E1F748
S11303C0DE01A35BBF4FEBEFF0E085E001900D92FF
S11303D08150E1F7DE01AE5ABF4FE0E0F1E085E085
S11303E001900D928150E1F7DE01A95ABF4FE5E07B
S11303F0F1E085E001900D928150E1F7DE01A45A0D
S1130400BF4FEAE0F1E085E001900D928150E1F701
S1130410DE01AF59BF4FEFE0F1E085E001900D92AE
S11304208150E1F7DE01AA59BF4FE7EEF0E085E025
S113043001900D928150E1F7DE01A559BF4FECEE1A
S1130440F0E085E001900D928150E1F7DE01A059C2
S1130450BF4FE1EFF0E085E001900D928150E1F7AC
S1130460DE01AB58BF4FE6EFF0E085E001900D925E
S11304708150E1F7DE01A658BF4FEBEFF0E085E0D5
S113048001900D928150E1F7DE01A158BF4FE0E0E9
S1130490F1E085E001900D928150E1F7DE01AC5767
S11304A0BF4FE5E0F1E085E001900D928150E1F766
S11304B0DE01A757BF4FEAE0F1E085E001900D921D
S11304C08150E1F7DE01A257BF4FEFE0F1E085E094
S11304D001900D928150E1F7DE01AD56BF4FE4E18A
S11304E0F1E085E001900D928150E1F70E94AB00AC
S11304F00E941001579A86E690E00E941D0180EC4C
S11305000E94FF0085E790E00E941D014FEF54E335
S11305106CE0415050406040E1F700C000006FEFD4
S113052074E38CE0615070408040E1F700C000004B
S11305308FEF94E3ACE081509040A040E1F700C01D
S113054000004FEF54E36CE0415050406040E1F74D
S113055000C0000081E00E94FF0082E890E00E9459
S11305601D0188248E010A5F1F4F602E412E0F2E1D
S1130570F2EACF2EF0E0DF2EF02D0F2EF1EBAF2EAE
S1130580F0E0BF2EF02D80EC0E94FF00E82C0E94CA
S113059049008F3F49F0F801EE0DF11D805D808325
S11305A0E3948AE20E94ED006FEF72E587E0615008
S11305B070408040E1F700C0000073E07E1538F71A
S11305C08A8681E00E94FF00CE010196662D742D7B
S11305D00E943906282F392F21153105E9F581E9C3
S11305E090E00E941D018FEF94E3ACE081509040B5
S11305F0A040E1F700C000004FEF54E36CE041502D
S113060050406040E1F700C000006FEF74E38CE0FD
S1130610615070408040E1F700C000008FEF94E328
S1130620ACE081509040A040E1F700C0000081E0C0
S11306300E94FF007894BB24AA24CC240F2EFBE054
S11306408F2E9924F02D8C0E9D1E0F2EF5ED4F2E1E
S1130650F0E05F2EF02D2EC0C6010E941D014FEF69
S113066054E36CE0415050406040E1F700C00000AA
S11306706FEF74E38CE0615070408040E1F700C09C
S113068000008FEF94E3ACE081509040A040E1F78C
S113069000C000004FEF54E36CE041505040604014
S11306A0E1F700C0000081E00E94FF00C5010E9444
S11306B01D0169CF86E00E94FF000E944900D82EE8
S11306C080914001813009F083C00E94FF0080E8DE
S11306D00E94FF00109240018AE191E0BE01695C32
S11306E07F4F0E94340680E090E0BE01695C7F4F3A
S11306F00E9434068C01BE016E5C7F4F0E94390655
S1130700282F392F2115310559F0C80162EC70E00A
S11307100E943906282F392F2115310509F052C0BE
S113072081E00E94FF0080E80E94FF0080913F0169
S113073090E008970AF086C2CC2416C0F701E00FB7
S1130740F11F80810E94ED00C39450E1C51619F495
S113075080EC0E94FF000F5F1F4F80913F0190E0EB
S113076008978017910754F783E090E020E422BBB8
S11307704FE758E361E0415050406040E1F700C06A
S1130780000012BA4FE758E361E041505040604026
S1130790E1F700C0000022BB4FE758E361E041509D
S11307A050406040E1F700C0000012BA4FE759EA38
S11307B063E0415050406040E1F700C00000019701
S11307C0B1F601C0CC2410923F01DD24DA945EC05E
S11307D05FE0D51641F4BB2009F443C261E0B616CC
S11307E009F054C057C07CE0D71609F04FC081E02F
S11307F00E94FF0080E80E94FF008C2D90E0049787
S1130800181619067CF4740107E010E00C0F1D1F84
S11308100C0D111DD7018D917D010E94B500E016CC
S1130820F106C1F787EC90E00E94BD008E01035DE4
S11308301F4F0F2EF1E3EF2EFF24F02DEC0EFD1EC3
S1130840F80181918F010E94B5000E151F05C1F7B3
S113085087EC90E00E94BD0089EC90E00E94BD000E
S11308608AE00E94B5008BEC90E00E941D014FEFDE
S113087051EE64E0415050406040E1F700C0000098
S113088081E00E94FF0080E80E94FF005FEFD51620
S113089011F4CEC1BB248D2D8A50863040F0BB208C
S11308A031F4F401EC0DF11D865C8083C39461E1A5
S11308B0C61619F480EC0E94FF0076E0D71609F4FE
S11308C0D8C07D15A8F082E0D81609F460C08D1553
S11308D038F0DD2041F191E0D91609F0A9C139C001
S11308E0A4E0DA1609F489C0AD1508F4A4C06AC0FE
S11308F0BAE0DB1609F441C1BD1540F0E8E0DE16AC
S113090009F4F7C0ED1508F416C1D1C0FDE0DF16F7
S113091009F449C14EE0D41609F479C15BE0D51657
S113092009F086C13AC1BB2021F480E30E94ED00A6
S11309307FC184E10E94FF00D401AC0DB11DE3E945
S1130940F0E0EC0FFD1FEA0DF11D80818C93C39440
S11309506FC1BB2021F481E30E94ED0069C10A2D1F
S113096010E0E1E6F0E0EC0FFD1FE00FF11F8081E5
S11309700E94ED00D401AC0DB11DEEE8F0E0EC0FE7
S1130980FD1FE00FF11F80818C93C39451C1BB20E4
S113099021F482E30E94ED004BC10A2D10E0FE0118
S11309A0E00FF11F81AD0E94ED00D401AC0DB11D2B
S11309B0E6E6F0E0EC0FFD1FE00FF11F80818C9361
S11309C0C39436C1BB2021F483E30E94ED0030C1FF
S11309D00A2D10E0FE01E00FF11F86AD0E94ED002C
S11309E0D401AC0DB11DEBE6F0E0EC0FFD1FE00F00
S11309F0F11F80818C93C3941BC1BB2021F484E339
S1130A000E94ED0015C10A2D10E0E3E4F0E0EC0FC4
S1130A10FD1FE00FF11F80810E94ED00D401AC0D99
S1130A20B11DE0E7F0E0EC0FFD1FE00FF11F808146
S1130A308C93C394FDC0BB2021F485E30E94ED0098
S1130A40F7C00A2D10E0E8E4F0E0EC0FFD1FE00F22
S1130A50F11F80810E94ED00D401AC0DB11DE5E7CA
S1130A60F0E0EC0FFD1FE00FF11F80818C93C39425
S1130A70DFC0BB2021F486E30E94ED00D9C00A2D1B
S1130A8010E0EDE4F0E0EC0FFD1FE00FF11F8081BA
S1130A900E94ED00D401AC0DB11DEAE7F0E0EC0FCB
S1130AA0FD1FE00FF11F80818C93C394C1C0BB2054
S1130AB021F487E30E94ED00BBC061E0B61609F0A3
S1130AC0B7C00A2D10E0E2E5F0E0EC0FFD1FE00FE7
S1130AD0F11F80810E94ED00D401AC0DB11DEFE740
S1130AE0F0E0EC0FFD1FE00FF11F80818C93C394A5
S1130AF09FC0BB2021F488E30E94ED0099C071E0FF
S1130B00B71609F095C00A2D10E0E7E5F0E0EC0F08
S1130B10FD1FE00FF11F80810E94ED00D401AC0D98
S1130B20B11DE4E8F0E0EC0FFD1FE00FF11F808140
S1130B308C93C3947DC0BB2021F489E30E94ED0013
S1130B4077C081E0B81609F073C00A2D10E0ECE517
S1130B50F0E0EC0FFD1FE00FF11F80810E94ED001B
S1130B60D401AC0DB11DE9E8F0E0EC0FFD1FE00F7E
S1130B70F11F80818C93C3945BC080E10E94FF00CD
S1130B80CA94F401EC0DF11D408286ED90E00E94C0
S1130B901D0180E10E94FF004BC0A39493E09A15CD
S1130BA008F445C045C081E00E94FF0080E80E942F
S1130BB0FF0088ED90E00E941D016C2C7724C30196
S1130BC0049786159705A4F58401080F191F0F2EA5
S1130BD0FDE2EF2EFF24F02DEC0EFD1E0F2EF1E3AF
S1130BE02F2E3324F02D2C0E3D1ED8018D918D0116
S1130BF0F70181937F010E94ED00C80188199909CA
S1130C0086159705ACF4E214F30479F711C081E07A
S1130C100E94FF008C2D90E0F40120E030E041922E
S1130C202F5F3F4F82179307D4F7CC2401C0AA2427
S1130C304FEF51EE64E0415050406040E1F700C096
S1130C40000038CD80911A010E94ED0000E010E010
S1130C50CC24C3940F2EFAE1EF2EF1E0FF2EF02DF9
S1130C607ACDBB24B39412CE4DE351E00E944206E8
S1130C700895FB01DC018D91019080190110D9F3D5
S1130C80990B0895FA01A191B081009719F4109776
S1130C90E1F0CD01DC01CD010D90002011F4C00183
S1130CA013C0FB012191222319F02015D9F7F3CFAA
S1130CB0FB012191201519F41E92119606C02223DE
S1130CC0C1F70D900020A1F7D001FA01A193B083E0
S1130CD00895FB019F01E8944230C4F04532B4F416
S1130CE04A3029F497FB1EF4909581959F4F642F09
S1130CF077270E949A06805D8A330CF0895D819380
S1130D00CB010097A1F716F45DE251931082C9015B
S1130D100C948A06DC01FC01672F71917723E1F7BB
S1130D20329704C07C916D9370836291AE17BF07B4
S1130D30C8F30895AA1BBB1B51E107C0AA1FBB1F20
S1130D40A617B70710F0A61BB70B881F991F5A9553
S1130D50A9F780959095BC01CD010895F894FFCF33
S1130D60303030303000576972656C6573732050D1
S1130D70616765720053797374656D2052656164AF
S1130D807900456E7465722050617373776F726475
S1130D9000436F72726563742050617373776F726E
S1130DA0640057726F6E672050617373776F72645B
S1130DB0005265656E7465722050617373776F724B
S1130DC0640030303030002C007E005061676520B4
S1130DD073656E740000200049443A2000313131BB
S1130DE0310030303031006162632D006465662665
S1130DF00067686925006A6B6C28006D6E6F2900B6
S1130E0070717273007475763F007778797A002E6A
S10D0E102C215F00202020200000A8
S9030000FC
